:100000000EC0189518951895189518951895189567
:1000100018951895189518951895189518958FEDA9
:100020008DBFC8EBE0EA4E2EDD275D2EA89584B784
:10003000082E877F84BF88E1992781BD91BDEEE7B7
:10004000F0E0A0E6B0E088278D933197E9F76624C9
:10005000BB98B89AB99ABC9A73EF7ABD71E073BF36
:1000600070E77CBD74E370BF77B5726077BDA7E4BD
:100070000C9100FB0EF401C0FACF77B5746077BD28
:1000800085E581BFE2E0F0E0A2E6C5D0E1E0F0E086
:10009000A1E6C1D0E0E0F0E0A0E6BDD0A2E68C9100
:1000A00089BDA1E68C9188BDA0E68C918BBDE3E073
:1000B000F0E062D0789478D0A3E68C93009163004E
:1000C00043E00423A4E60C9300916300043008F09D
:1000D00047C06AD0A3E68C9300916400003009F019
:1000E00007C00FEF40916300041BA2E60C9338C0D9
:1000F000013009F007C00FEF40916300041BA1E637
:100100000C932EC0023009F007C00FEF409163003E
:10011000041BA0E60C9324C0033009F021C0E2E0E8
:10012000F0E0A2E67BE766D0E1E0F0E0A1E67BE765
:1001300061D0E0E0F0E0A0E67BE75CD070E079BD64
:1001400070E078BD70E07BBD8AE090E03FD0A2E631
:100150008C9189BDA1E68C9188BDA0E68C918BBD68
:10016000A2E68C9189BDA1E68C9188BDA0E68C9118
:100170008BBDA1CFF894FFCF88EE93E027D03197C5
:10018000D9F708953197F1F70895689462F80895C2
:10019000E89462F808958F939F938BE991E001971B
:1001A000F1F79F918F910895B39B01C0FDCF29E096
:1001B000B399FECFF0DFEFDFEEDF8894B3990894B8
:1001C0002A9519F087959795F6CF0895EF93FF93A9
:1001D000EE27E82BE92B31F0E0EAFFE03197F1F769
:1001E0000197D1F7FF91EF910895E199FECFEEBB12
:1001F0003196089591E001C092E07B3751F47FB7CA
:10020000F894F3DF8D918DBBE29AE19A9A95C9F744
:100210007FBF7727089591E001C092E0E6DFE09A82
:0A0220008DB38D939A95D1F70895E0
:00000001FF
